:100F2600942F0313831661308F0003138316F83052
:100F36008600031383168701031783168901880128
:100F4600031783128701880103138316811703137E
:100F56008312870103138312A301A101F8308605CA
:100F6600013086040000061EBB2F0130A1002314A9
:100F7600861EC02F0230A1002314061FC52F033082
:100F8600A1002314F8308605023086040000061EF0
:100F9600CF2F0430A1002314861ED42F0530A100C4
:100FA6002314061FD92F0630A1002314F830860516
:100FB600043086040000061EE32F0730A100231428
:100FC600861EE82F0830A1002314061FED2F0930D6
:100FD600A1002314F8308605231CFB2F2108303E80
:100FE600A200220880388700871300000000AD2F7A
:0A0FF600B030870087130000AD2F14
:04400E00F520FF3F5B
:00000001FF
