:02000000C02816
:0200080080284E
:10010000F000030EF100710E8300F00E700E090076
:100110006430F200F20B8A280800031383161419C6
:100120008D280313831611081F39031D8D2808001D
:100130008D2003138316111411189C2803138312A6
:1001400040309300031383128C1DA2288C110313DB
:100150008316111BBA280313831272080313831228
:100160009300031383128C1DB1288C110313831683
:10017000111BBA280313831611151119BD28080085
:100180000317831688010317831689010317831247
:100190008701031783128801031783168501031350
:1001A000831618308700031383128501031383120B
:1001B0008601031383128701031383168030940092
:1001C000031383122830940003138316093093001D
:1001D000031383128C11031383168C1103138312E0
:0A01E0005530F20098208820F22824
:04400E00F120FF3F5F
:00000001FF
