:02000000402896
:02001000662860
:10008000031383168501031383123F308500031386
:100090008316033086000317831688018901031332
:1000A00083168530810003138316033096000313F3
:1000B0008312A0308B00031383120430A000A1012F
:1000C0000530A200A301A40163006428A500030E6B
:1000D00003138312A6000B1975200B18EA200313D3
:1000E0008312260E8300250809000B11A10A0C308B
:1000F0002102031D0800A101CB30810003138312EC
:10010000061C231406188D20861C2414861894209F
:10011000031383128B119B200800031383122310F7
:10012000031383128B150800031383122410031387
:1001300083128B15080003138312A2030319B7203F
:100140000313831220088207A928AB28AD28AF2803
:10015000B1283F30B3280C30B3280A30B3282130FF
:10016000B3281130B328031383128500080003134A
:1001700083122008043A0319CA282008003A0319F8
:10018000CF282008013A0319DA282008023A031977
:10019000DF28CA280030A0001930A2000800230878
:1001A0000319D5282408031908000130A0000530E0
:1001B000A20008000230A0001930A20008002408A4
:1001C0000319E5282308031908000330A0000530AF
:1001D000A200080003138312061C2314861C241497
:0C01E000031383120B18EC280B1008000E
:04400E00F120FF3F5F
:00000001FF
