:020000000929CC
:0200080080284E
:100100000900031383161419812803138316110899
:100110001F39031D81280800812003138316111441
:1001200011189028031383128C11080003138312F3
:100130008C1103138316111511199C280800031341
:1001400083129300031383128C1DA22803138316BA
:10015000111BAE28031383128C110800962008008F
:100160005030F000F00BB228080072080339F40098
:100170000310F40D0310F40D0310F40D0310F40D2F
:100180000310F40D0310F40D73083F39F4048C20B0
:1001900040309F2074089F209620B0200800031351
:1001A000831201309F00B0209F149F18D52803139D
:1001B00083121E08FC39F3000310F30C0310F30C38
:1001C0007308F6000313831205309F00B0209F14BC
:1001D0009F18E828031383121E08FC39F30003104C
:1001E000F30C0310F30C7308F700031383120930A8
:1001F0009F00B0209F149F18FB28031383121E0832
:10020000FC39F3000310F30C0310F30C7308F8002F
:1002100008000317831688018901031783128701D9
:100220008801031783168501031383128501860154
:1002300087010317831608148814081503138316FF
:10024000051485140515031383161830870003134E
:10025000831600309F000313831201309F000313A5
:100260008316803094000313831228309400031304
:100270008316093093002030F1002030F600F7009B
:10028000F8000A30F500031383128C110313831650
:100290008C11F50B4E29CF200A30F500F2017608BB
:1002A000F300B5200130F2007708F300B5200230EA
:0A02B000F2007808F300B520492998
:04400E00F120FF3F5F
:00000001FF
