:02000000C42812
:0200080080284E
:10010000F000030EF100710E8300F00E700E090076
:1001100003138316141988280313831611081F3933
:10012000031D882808008820031383161114111852
:100130009728031383128C110800031383128C1168
:100140000313831611151119A32808000313831232
:100150009300031383128C1DA92803138316111B0C
:10016000B528031383128C1108009D200800283045
:10017000F200F20BB928080093202030A6203F306F
:10018000A6209D20B72008000317831688010317B7
:1001900083168901031783128701031783128801CD
:1001A00003178316850103138316FF30850003139D
:1001B00083161830870003138312850103138312FB
:1001C0008601031383128701031383168030940082
:1001D000031383122830940003138316093093000D
:1001E000031383128C11031383168C11BC20F62881
:04400E00F120FF3F5F
:00000001FF
