:02000000CF2807
:020010001128B5
:10002200A300030EA400031383120B182220031350
:1000320083120C1857200313831224088300230809
:100042000900031383120608031383120B10061808
:100052003F28031383122008003A031D3928031393
:10006200831222183F28031383120A30A1003F286B
:10007200023A031D3F2803138312221486185628BE
:10008200031383122008023A031D5028031383121C
:1000920022185628031383120A30A1005628023A66
:1000A200031D56280313831222140800031383121C
:1000B2000C10031383120B308F00DC308E000313FD
:1000C2008312A10803196728A103080003138312EE
:1000D2002008003A0319A328013A0319A728033A72
:1000E2000319AB2874280030A000783082007C28E5
:1000F2007E28802882280A308328023083280A300A
:100102008328023003138312A100031383122008F1
:10011200013903198F2803138312A20103138312D7
:100122002008943E820098289A289C289E282130F4
:100132009F2822309F280C309F28143003138312EB
:10014200870008000130A000793082000230A00050
:0C0152007A3082000330A0007B30820075
:10019E000313831287010313831286010313831241
:1001AE00850103138312A0010A30A100A2010313DB
:1001BE008316C030870003138316FF3086000313A7
:1001CE008316FF30850003178316880103178316E5
:1001DE008901031783128701880103138316970180
:1001EE00031383129F019F0103138316033096009E
:1001FE00031383120608031383120B108B150313BC
:10020E00831231309000031383120B308F00DC30D9
:10021E008E00031383160C14031383120B178B1704
:0A022E0003138312213087001B29FF
:04400E00F120FF3F5F
:00000001FF
