:02000000602876
:10000800F000030EF100031383128B18102803135A
:1000180083120C1829284F28031383128B100B12F4
:100028000313831237308700031383120430F2005E
:10003800031383128E018F01031383160C14031309
:1000480083123030900010144F28031383120C10C1
:1000580003138312F203720803194128720801304E
:10006800720203193A288E018F014F280313831255
:1000780070308E002F308F004F280313831210101A
:10008800031383160C1003138312313087000313F4
:1000980083120B164F28710E8300F00E700E0900A4
:1000C0008701031383168701061403178316091289
:1000D00003138316011303138312313087000618AC
:1000E0008228373087000430F200031383128E0118
:1000F0008F01031383160C14031383123030900006
:1001000010148628031383128B100B168B17872865
:04400E00F120FF3F5F
:00000001FF
