:02000000B7281F
:0200080080284E
:10010000F000030EF1008C1DB2288C110313831232
:100110001308F20003138316941EAF287208F3002D
:100120003F39F2007308C039F3000319A4284030A6
:1001300073020319A728803073020319AA28C0305C
:1001400073020319AD28AF287208F400AF287208B3
:10015000F500AF287208F600AF287208F600031306
:1001600083121416710E8300F00E700E090003172F
:1001700083168801890103178312870188010317F9
:1001800083168501031383128501860187010313FA
:100190008316FF30850003138316FE308600031399
:1001A0008316F830870003138316F9309200031387
:1001B000831207309200031383120C3097009D00C6
:1001C0000313831297121712031383129D121D1229
:1001D0002030F400F500F600F701031383164030D9
:1001E0009300031383168030940003138312363078
:1001F0009400031383168C15031383128B170B17AC
:10020000F70A04307702031D1029F70174083E3EF7
:1002100003138312950075083E3E031383129B005F
:100220008B13031383121108F30003138312760850
:100230003E3E7302031C0614031806108B170313AB
:080240008312071407100029C6
:04400E00F120FF3F5F
:00000001FF
