:020000000828CE
:100010000313831661308F0003138316FC308500B1
:1000200003178316880189010313831203308500A7
:10003000A60126082E20A4002E20A5002520A60A11
:10004000103026020319A6011928003085003F2030
:10005000033085003F20A50B2528080082071E34A9
:1000600080341E3480341E34803427348034173476
:1000700080341E34803427348034173480340A307E
:10008000A0002408A2000000A20B43280000A00B3F
:0400900041280800FB
:04400E00F520FF3F5B
:00000001FF
