:02000000752861
:08000800F000030EF100B8281E
:10008000731C40288B1208000313831206080B1000
:1000900006184C28373051288618502836305128F9
:1000A000313087008B1508007508013A03196C2858
:1000B0004020760803196828F200F30181018B16AD
:1000C0000130F50074148B15F601363087000800F6
:1000D000F501F4014420080040207508013A031D91
:1000E0000800F501F401442008008701031383167A
:1000F00087010614861403178316091209110313C6
:100100008316873081000313831281010313831642
:1001100016149614031383120608031383120B108C
:100120000B118B158B17F401F501F60103138312E4
:10013000061C9F28861CAB2831308700B528373035
:1001400087001F30F200F30181018B160230F500A9
:1001500074148B11B528363087001F30F200F3017C
:1001600081018B160130F500741474185420B528E1
:100170000B19F3280313831206080B107508023AB3
:100180000319F8287508013A031DC9280618F8282C
:10019000CE28061CCE28861CE228ED2837308700A2
:1001A000F6017508013A031DD8287208F600731489
:1001B0001F30F200F30181018B160230F500741438
:1001C0008B11F828363087001F30F200F3018101CF
:1001D0008B160130F5007414F82831308700F501D2
:1001E000F4018B12F8280B11F20303197314F82889
:0A01F000710E8300F00E700E09007E
:04400E00F120FF3F5F
:00000001FF
