:020000002028B6
:1000400003138316F030860003138316870103130E
:10005000831607308500031783168801890103176B
:100060008312870188010313831287010313831608
:100070000130810003138312A30103138312A10132
:1000800003138312A20103138312A4010313831227
:10009000A501F320222119210313831223186128BB
:1000A000031383122A1C6128523003138312A00009
:1000B000D721231403138312A10103138312A40174
:1000C000752803138312A3186E28031383122A1DA5
:1000D0006E28A31403138312A101B72803138312FC
:1000E00023187528A318B728CA281921AA1C79280B
:1000F000A828382103138312291882280313831296
:10010000A4019B2803138312241875282414AD21FD
:1001100003138312A20A022103138312A10A0A30D5
:10012000210203199528D7217528031383120A3059
:10013000A2000221A828031383122208031DA52868
:10014000523003138312A000D7210A30E62075280D
:1001500003138312210803138312A2000221031345
:100160008312231003138312A40133214B28C621C9
:10017000D721E830E62003138312A10A0313831268
:10018000210822020319C528B72803138312A310DC
:1001900033214B28031383122518D5280313831208
:1001A000260803138312A000D928533003138312A7
:1001B000A000D721E830E620031383120130A50602
:1001C00019212A184B282A194B28CA28A7000430BD
:1001D000A800063081000B1DEB280B11A80BE928A5
:1001E000A70BE7280800031783120A308D000317B6
:1001F00083168C130C14031783120C080313831239
:10020000A2000800031783120A308D000313831223
:100210002208031783128C00031783168C130C1506
:1002200055308D00AA308D008C148C1815290C11B6
:1002300008000313831205080739073A03138312D2
:10024000AA000800031783128D01031783168C136D
:100250000C14031783120C0803138312A600031354
:100260008312A0000800222103138312A5014B284A
:1002700003138312A90103138312A001F030860532
:1002800001308604000003138312061E4A29313010
:10029000A0002914861E4F293230A0002914061F01
:1002A00054293330A0002914861F59294130A00059
:1002B0002914F030860502308604000003138312EF
:1002C000061E65293430A0002914861E6A2935309F
:1002D000A0002914061F6F293630A0002914861F9C
:1002E00074294230A0002914F030860504308604B9
:1002F000000003138312061E80293730A000291442
:10030000861E85293830A0002914061F8A29393015
:10031000A0002914861F8F294330A0002914F03033
:10032000860508308604000003138312061E9B29ED
:100330002A30A0002914861EA0293030A0002914DC
:10034000061FA5292330A0002914861FAA2944309E
:10035000A0002914F0308605080003138312210839
:10036000031783128D0003138312200803178312CF
:100370008C00031783168C130C1555308D00AA3092
:100380008D008C148C18C2290C11080003138312E1
:100390002108031783128D00031783168C130C1486
:1003A000031783120C0803138312A0000800031321
:1003B00083122008803803138312870087130000FC
:0403C0000000080031
:04400E00F120FF3F5F
:00000001FF
