:020000002028B6
:1000400003138316F030860003138316870103130E
:100050008316073085000313831681130317831655
:100060008801890103178312870188010313831212
:10007000870103138312A30103138312A101031346
:100080008312A2013130A000A10152210313831277
:10009000A00A03138312A10A0A302102031D452876
:1000A000031783128D01031783168C130C14031787
:1000B00083120C0803138312A00003138312231866
:1000C0006B287C210313831205080739073A0313B1
:1000D0008312A8007628D230031383128700871377
:1000E000872103138312870187215D28031383125D
:1000F0002318862803138312281C8628231403132D
:100100008312A20103138312A1019A2803138312FD
:10011000A318932803138312281D9328A3140313F1
:100120008312A101BF280313831223189A28A3184E
:10013000BF28DB28DD2003138312271CAC285221A3
:1001400003138312A20A03138312A10A7C219421B0
:100150000A3022020319AE2887219A28031383123A
:100160002310031783128D01031783168C130C14AD
:10017000031783120C0803138312A0005D286B2160
:100180007C21872103138312A10A0A30210203195B
:10019000CA28BF2803138312A310031783128D01EB
:1001A000031783168C130C14031783120C08031304
:1001B0008312A0005D2887215D2803138312A70105
:1001C00003138312A001F03086050130860400007D
:1001D00003138312061EEF283130A0002714861E59
:1001E000F4283230A0002714061FF9283330A0006D
:1001F0002714861FFE284130A0002714F030860502
:1002000002308604000003138312061E0A293430CC
:10021000A0002714861E0F293530A0002714061FC2
:1002200014293630A0002714861F19294230A00057
:100230002714F0308605043086040000031383126F
:10024000061E25293730A0002714861E2A2938309B
:10025000A0002714061F2F293930A0002714861F5D
:1002600034294330A0002714F03086050830860476
:10027000000003138312061E40292A30A000271411
:10028000861E45293030A0002714061F4A29233036
:10029000A0002714861F4F294430A0002714F030F7
:1002A00086050800031383122108031783128D00AB
:1002B000031383122008031783128C00031783167D
:1002C0008C130C1555308D00AA308D008C148C18B1
:1002D00067290C11080003138312210803178312E6
:1002E0008D00031783168C130C14031783120C084C
:1002F00003138312A0000800031383122008803820
:1003000003138312870087130000000008000430E5
:10031000A400FF30A500C830A600A60B8D29A50BB0
:100320008B29A40B892908000130A400FF30A50007
:100330003230A600A60B9A29A50B9829A40B962962
:020340000800B3
:04400E00F120FF3F5F
:00000001FF
