:020000002028B6
:10004000031383168F0103178316013088000317EB
:10005000831689010317831287018801031783160A
:1000600085010313831297019D010313831600304A
:100070009F000313831241309F00031383168701EF
:10008000031383128701031383122030900003139C
:100090008316061003138312061003138312FF3016
:1000A000A100A400A001A201A301A501A601A7012E
:1000B000A801A901AA01B4200530A0000000000099
:1000C00000000000A00B5E28031383129F149F18EA
:1000D0006728031383121E08A200210203195B285C
:1000E0002208A100031383128700A3000310A30CAE
:1000F0000310A30C2308240203195B282308A4007F
:10010000A900AA010310A90DAA0DA90DAA0DA90DF8
:10011000AA0DA90DAA0DA90DAA0DA90DAA0DA90D2B
:10012000AA0D2308A902031CAA030310AA0CA90CF8
:100130000310AA0CA90C0310AA0CA90C0310AA0CFA
:10014000A90C7D30A9070318AA0A2908A5002A08C6
:10015000A6008830A7001330A8002508A702031CBA
:10016000A8032608A8025B28031383120614250897
:10017000FF3AA9002608FF3AAA00A90A0319AA0A09
:1001800029088E002A088F00031383120C10031312
:1001900083121014031383120C1CCA280313831236
:1001A00010100313831206102708FF3AA90028082D
:1001B000FF3AAA00A90A0319AA0A29088E002A08E8
:1001C0008F00031383120C100313831210140313F4
:0E01D00083120C1CE728031383121010080082
:04400E00F120FF3F5F
:00000001FF
