:020000002028B6
:020008009A2834
:10004000031383168F0103178316013088000317EB
:10005000831689010317831287018801031783160A
:10006000850103138316051403138316803087005C
:10007000031383128701031383162430980003139C
:1000800083129030980003138316193099000313DC
:10009000831680309F000313831241309F000313A7
:1000A0008316F93092000313831207309200031372
:1000B00083120C309700031383125E3095000313F4
:1000C00083160C17031383128B170B1769207120EB
:1000D0006628AE20031383121A08243C031D6928E6
:1000E0000800AE20031383121A08F000AE20031399
:1000F00083121A08F1007D2008007008950095070A
:100100001F30950703138312171097102430BF2058
:100110007108183C031991287108813C031996282D
:1001200008007008BF207108BF2008000313831265
:100130009F140800031383120C1F09000C130313F0
:1001400083121E08F200031383161E08F300031324
:1001500083127208BF207308BF20090003138312A3
:100160008C1EB028031383129818B9281819B928BF
:10017000080018121816031383121A0808000C1E20
:0A018000BF28031383129900080042
:04400E00F120FF3F5F
:00000001FF
