:020000002028B6
:020008000828C6
:020010000900E5
:10004000031383168F010317831688010317831682
:10005000890103178312870188010317831685011D
:100060000313831297019D0103138316D030870079
:10007000031383128701031383162430980003139C
:1000800083129030980003138316193099000313DC
:100090008312A001031383128C1E4A2803138312B8
:1000A0001A08243C031D4A282430772003138312A6
:1000B0008C1E6B28031383120716031383129818E0
:1000C0006F2818196F28031383121A080313831259
:1000D000A000772056280313831207125628031313
:1000E00083121812181603138312071656280313C7
:0E00F00083120C1E7728031383129900080058
:04400E00F120FF3F5F
:00000001FF
