:020000002028B6
:1000400003138316F030860003138316870103130E
:100050008316073085000313831681130317831655
:100060008801890103178312870188010313831212
:10007000870103138312A20103138312A701031341
:100080008312A8010313831205080739073A0313E3
:100090008312A60003138312261C54280313831211
:1000A000271403138312A80103138312A61C5B28D1
:1000B00003138312271003138312261D5F280313D3
:1000C0008312270803196F28D23003138312870085
:1000D0008713302103138312870130214228031331
:1000E0008312A10103138312A001F03086050130B1
:1000F0008604000003138312061E81283130A000FD
:100100002114861E86283230A0002114061F8B2859
:100110003330A0002114861F90284130A000211404
:10012000F030860502308604000003138312061E99
:100130009C283430A0002114861EA1283530A00050
:100140002114061FA6283630A0002114861FAB28D4
:100150004230A0002114F0308605043086040000EF
:1001600003138312061EB7283730A0002114861E01
:10017000BC283830A0002114061FC1283930A00047
:100180002114861FC6284330A0002114F0308605B4
:1001900008308604000003138312061ED2282A307A
:1001A000A0002114861ED7283030A0002114061F7D
:1001B000DC282330A0002114861FE1284430A00051
:1001C0002114F030860503138312271CF52803132E
:1001D0008312211CF52803138312200803138312B2
:1001E000A9000F2103138312A80A03138312211CF1
:1001F0000429031383122008803803138312870015
:10020000871300000000422803138312D3308700B5
:1002100087133021031383128701302142280317EB
:1002200083160C191129031383122808031783124C
:100230008D00031383122908031783128C00031700
:1002400083168C138C14031383128B1355308D007B
:10025000AA308D000C150C192B298C108B17080057
:100260000430A300FF30A400C830A500A50B362938
:0A027000A40B3429A30B3229080067
:04400E00F120FF3F5F
:00000001FF
