:020000000828CE
:100010000313831661308F0003138316F0308600BC
:1000200003138316FC3085000317831688018901AA
:1000300003138316811703138312033085001830CE
:10004000A4009B20A301A101F030860501308604A5
:100050000000061E2E280130A1002314861E33281E
:100060000230A1002314061F38280330A1002314F6
:10007000861F3D280430A1002314F030860502308D
:1000800086040000061E47280530A1002314861EA2
:100090004C280630A1002314061F51280730A10068
:1000A0002314861F56280830A1002314F03086053B
:1000B000043086040000061E60280930A1002314C5
:1000C000861E65280A30A1002314061F6A280B30FB
:1000D000A1002314861F6F280C30A1002314F030D8
:1000E0008605083086040000061E79280D30A10020
:1000F0002314861E7E280E30A1002314061F832899
:100100000F30A1002314861F89280030A10023147A
:100110008928F0308605231C21282108031D9228F8
:100120000F309328FF3EA620A400003085009B20BE
:100130000330850021280A30A0002408A200000016
:10014000A20B9F280000A00B9D28080082075E34A8
:1001500053344A3446343E34373431342E3429341F
:0E016000243422341E341B3417341634133466
:04400E00F520FF3F5B
:00000001FF
