:02000000A62830
:0200080080284E
:10010000F000030EF1008C1DA1288C110313831243
:10011000130803138316941E9E28F2007208C03938
:10012000F30072083F39F3080319F40040307302FA
:100130000319F500803073020319F60003138312CC
:100140001416710E8300F00E700E0900031783164B
:100150008801890103178312870188010317831619
:10016000850103138312850186018701031383161A
:10017000FF30850003138316FE30860003138316B9
:10018000F830870003138316F930920003138312AB
:1001900007309200031383120C3097000C309D003F
:1001A0002030F400F500F60003138316203093008E
:1001B00003138316803094000313831236309400A7
:1001C000031383168C15031383128B170B177408F4
:1001D0003E3E0313831295000313831297121712E6
:1001E00075083E3E031383129B00031383129D1276
:1001F0001D12031383121108F30076083E3E7302AA
:10020000031C04290614052906100313831207147E
:02021000E728DD
:04400E00F120FF3F5F
:00000001FF
