:08000000803102288731FD2F39
:100ED80016302100970008008731A9278731732F22
:100EE8007508F1007408F00008003C3025009300F4
:100EF80092017C30910008007A30210099008030FE
:100F0800220096002100980108008B101517003068
:100F1800F4000030F50087317427080020302100E4
:100F28009E009F019B019C0181309D0020001113B0
:100F38000800F93020009B009A010030F2000030D0
:100F4800F300911007309C00080087318027873113
:100F58008731BE27873187317927873187319D27A8
:100F6800873187319227873187316C2787318731DD
:100F78008927080022008C018D018E01FF30210095
:100F88008C00FE308D00FF308E0008309000BF309E
:100F980023008C007F308D00FF308E00FF3024004E
:100FA8008C00FF308D00FF308E000830900021004B
:100FB800951325008C018D018E0126008C018D0171
:100FC8008E0127008C018D01FF308E0008309000C3
:100FD800403022009D002700910192019301940165
:100FE800950196019701980199019D019E019F0124
:080FF800080020008731702F72
:020000040001F9
:04000E00E43FFF1EAE
:00000001FF
